:020000040800F2
:10000000000003207D0600086D2200086F22000812
:100010007122000873220008752200080000000009
:10002000000000000000000000000000517A0008FD
:100030007722000800000000E17A00083D73000804
:10004000CD060008CD060008CD060008CD06000844
:10005000CD060008CD060008CD060008CD06000834
:10006000CD060008CD060008CD060008CD06000824
:10007000CD060008CD060008CD060008CD06000814
:10008000CD060008CD060008CD060008CD06000804
:10009000CD060008CD060008CD060008CD060008F4
:1000A000CD060008CD060008CD060008CD060008E4
:1000B000CD060008CD060008CD060008CD060008D4
:1000C000CD060008CD060008CD060008CD060008C4
:1000D000CD060008CD060008CD060008CD060008B4
:1000E000CD060008CD060008CD060008CD060008A4
:1000F000CD060008CD060008CD060008CD06000894
:10010000CD060008CD060008CD060008CD06000883
:10011000CD060008CD06000879220008CD060008AB
:10012000CD060008CD060008CD060008CD06000863
:10013000CD060008CD060008CD060008CD06000853
:10014000CD060008CD060008CD060008CD06000843
:10015000CD060008CD060008CD060008CD06000833
:10016000CD060008CD060008CD060008CD06000823
:10017000CD060008CD060008CD06000800000000EE
:10018000CD060008CD060008CD060008CD06000803
:10019000CD060008CD060008CD060008CD060008F3
:0C01A00085220008CD060008912200080E
:1001B00010B5054C237833B9044B13B10448AFF3A1
:1001C00000800123237010BD800300200000000088
:1001D000D057020808B5034B1BB103490348AFF3DE
:1001E000008008BD0000000084030020D0570208F2
:1001F00010F8012B11F8013B012A28BF9A42F7D0D1
:10020000D01A70470000000000000000000000004D
:1002100001F0FF01102A2BDB10F0070F08D010F8B7
:10022000013B013A8B422DD010F0070F42B3F6D1BB
:10023000F0B441EA012141EA014122F007047FF0D4
:1002400000070023F0E80256083C85EA010586EA2B
:10025000010685FA47F5A3FA87F586FA47F6A5FA67
:1002600087F68EB9EED1F0BC01F0FF0102F0070273
:1002700032B110F8013B013A83EA010313B1F8D11E
:100280000020704701387047002D06BF35460338FF
:10029000073815F0010F07D1013015F4807F02BF38
:1002A000013015F4C03F0130F0BC0138704700BF89
:1002B0007BB972B90029BEBF00204FF0004106E0B3
:1002C00008BF00281CBF6FF000414FF0FF3000F066
:1002D000D3B9ADF1080C6DE904CE002909DB002B80
:1002E0001ADB00F04DF8DDF804E0DDE9022304B08C
:1002F0007047404261EB4101002B1BDB00F040F8EE
:10030000DDF804E0DDE9022304B0404261EB410185
:10031000524263EB43037047524263EB430300F0E6
:100320002FF8DDF804E0DDE9022304B0404261EB80
:1003300041017047524263EB430300F021F8DDF8BE
:1003400004E0DDE9022304B0524263EB430370474B
:1003500053B94AB9002908BF00281CBF4FF0FF312C
:100360004FF0FF3000F088B9ADF1080C6DE904CE14
:1003700000F006F8DDF804E0DDE9022304B0704780
:100380002DE9F047089D8E4604468846002B4AD149
:100390008A42174662D9B2FA82F64EB1C6F12003FC
:1003A00001FA06F820FA03F3B74043EA0808B4401C
:1003B0004FEA174E1FFA87FCB8FBFEF1230C0EFB29
:1003C000118843EA084301FB0CF29A4209D9FB1851
:1003D00001F1FF3080F0EA809A4240F2E780023972
:1003E0003B449A1AA3B2B2FBFEF00EFB102243EA82
:1003F000024300FB0CFC9C4509D9FB1800F1FF32BD
:1004000080F0D6809C4540F2D3803B44023840EADD
:100410000140A3EB0C0300211DB1F3400022C5E90C
:100420000032BDE8F0878B4205D90DB1C5E9000166
:1004300000210846F5E7B3FA83F1002946D1734558
:1004400002D3824200F20581841A6EEB030201207E
:100450009046002DE5D0C5E90048E2E7002A00F00B
:100460009080B2FA82F6002E40F0A4808A1A030C23
:100470004FEA174E80B2BCB20121B2FBFEFC0EFB6C
:100480001C2243EA024304FB0CF29A4207D9FB18F0
:100490000CF1FF3802D29A4200F2E080C4469B1A67
:1004A000B3FBFEF20EFB123340EA034302FB04F4FB
:1004B0009C4207D9FB1802F1FF3002D29C4200F2A5
:1004C000CA8002461B1B42EA0C40A5E7C1F1200688
:1004D0008B4022FA06F71F430EFA01F420FA06F3C6
:1004E0002EFA06FE4FEA1749234300FA01F81FFAD5
:1004F00087FCBEFBF9F01C0C09FB10EE44EA0E442D
:1005000000FB0CFEA64502FA01F209D93C1900F1E4
:10051000FF3A80F09C80A64540F2998002383C4426
:10052000A4EB0E041FFA83FEB4FBF9F309FB13449A
:100530004EEA044403FB0CFCA44508D93C1903F122
:10054000FF3E80F08280A4457FD9023B3C4443EAD1
:100550000040A4EB0C04A0FB02EC64457346E146AA
:1005600062D35FD05DB1B8EB030264EB090404FA17
:1005700006F622FA01F31E43CC40C5E900640021CF
:100580004FE7B1FBF2FC010C41EA0E4180B240EAB8
:1005900001423B4638463C46B846BE462026B1FBA3
:1005A000F7F1A2EB080241EA0C4166E7014618E7C1
:1005B00010462CE7C6F120022EFA02F3B740B140F4
:1005C00020FA02F24FEA174E0A43B3FBFEF8BCB220
:1005D0000EFB1833110C41EA034108FB04F9B0404B
:1005E00089454FEA104380B23ED9791808F1FF3CA3
:1005F00001D289451FD8A1EB0901B1FBFEF909FB26
:1006000004F80EFB191192B242EA0142424529D286
:10061000BA1809F1FF31C4D24245C2D2A9F1020190
:100620003A44BEE7F0459DD2BEEB02036CEB070CEB
:100630000138E14696E7A7EB09094944A8F1020C05
:10064000B1FBFEF909FB04F8DBE773467FE7504690
:1006500066E70846FDE63B44023A33E7ACF1020C9C
:100660003B441CE749469CE7A1EB0901C446B1FBAA
:10067000FEF909FB04F8C4E7704700BFDFF834D087
:10068000002103E00C4B5B58435004310B480C4BEA
:1006900042189A42F6D30B4A02E0002342F8043B88
:1006A000094B9A42F9D304F0CBFB24F023FB01F071
:1006B0007FF87047000003204C430708000000202B
:1006C0007C01002080030020C8430120FEE7704722
:1006D00008B500F0BFFDBDE8084000F041BD00F0E6
:1006E000BBBD704710B50421044623F017F920461E
:1006F00010BD000038B50C4B0C4C18800C4B822000
:1007000019806368984740F6110398420AD1094D51
:1007100023682C60822098472B688220DB689847EA
:10072000002038BD0120FCE7A60300206400002063
:10073000A4030020A80300204FF4A071F020FFF7CD
:10074000D9BF0000F7B5394D2B6804461B698220DC
:100750009847208000284ED02B680DF106025B6977
:1007600001A982209847324B1B78002B4BD0BDF853
:10077000062040F674639A423FD9ADF80630BDF8C2
:1007800006209B1A9BB20A2B42D90B22B3FBF2F331
:10079000284A1288934201D9013A93B2BDF8042045
:1007A000254840F6B8318A4234D8C2F571620E321B
:1007B000016892B20F25B2FBF5F2204D2D88AA42B6
:1007C00084BF05F1FF35AAB28A4215468EB22AD9F6
:1007D000921B91B21A4E3768BB42BAB28CBF9A1ABA
:1007E000D21A92B211440529C4BF05603360036870
:1007F00063803368A38003B0F0BDB32A9CBFB422EA
:10080000ADF80620BBE7BDF80630A3F5B473B9E731
:100810000023C3E7C2F56D62083292B20E2A016866
:10082000C8D800252A46891A89B2D3E7A803002030
:1008300030260020A4030020A0030020A6030020EF
:100840009C03002037B568460D461446FFF77AFF33
:10085000BDF8000030B1BDF802302B60BDF80430A7
:100860002360012003B030BD032821D8DFE800F069
:10087000020B12190F4B1A68B2FA82F252090421C4
:100880000D4804F071BD0B4B5A68B2FA82F252095E
:100890000821F5E7074B9A68B2FA82F25209102153
:1008A000EEE7044BDA68B2FA82F252092021E7E758
:1008B000704700BFAC03002000100240032821D87D
:1008C000DFE800F0020B12190F4B1A68003A18BF4C
:1008D000012204210D4804F047BD0B4B5A68003A31
:1008E00018BF01220821F5E7074B9A68003A18BFA4
:1008F00001221021EEE7044BDA68003A18BF01220A
:100900002021E7E7704700BFAC0300200010024041
:1009100003280DD8DFE800F00206080A0421054884
:1009200004F027BD0821FAE71021F8E72021F6E7B7
:10093000704700BF0010024008B5032811D8DFE857
:1009400000F0020A0C0E0421074804F007FD431EC4
:100950005842584108BD0821F6E71021F4E720214C
:10096000F2E70020F3E700BF0010024070B5084D29
:1009700000240126E0B2FFF7DFFF18B12B68012B3E
:1009800018BF2E600134052C05F10405F2D170BDAD
:10099000AC030020012380F8781080F8793070478C
:1009A0007047002070470000034B4164003918BFB6
:1009B00001211970704700BF873601207047002061
:1009C0007047836B0BB10846184770474FF6FF70AE
:1009D0007047406803689B691847704770477047C5
:1009E0007047704710B5044600F04CFD236803497A
:1009F000D3F890302046BDE810401847000000D0E2
:100A000008B503680446D3F8843098472368204625
:100A1000DB6F984700F0ECF8236820465B6F98473F
:100A2000292001F043F900F0E3F8236820465B6FCA
:100A30009847F8E710B504460AF01EF923682046E7
:100A4000D3F8BC30BDE81040184700F0FFBC00F000
:100A500003BD00F035BD00F0D5BC00F045BD00F091
:100A60004DBD00F0D9BC09F035BB10B5842104465A
:100A700022F054FF204610BD10B590F8341090F8C5
:100A800078400C4B8C421A7809D03AB90A4A0B4983
:100A90001488088810800C8001221A7010BD002A6A
:100AA000FCD0054A05491488088810800C80002273
:100AB000F3E700BF803601207C3601207E3601201E
:100AC00070B50D46194635B9094B0A4A0A4840F235
:100AD000FF2123F05FFEC0E90F52084B003A18BF18
:100AE00001221A700368BDE87040D3F890301847AF
:100AF0004C58020884580208D25802088636012051
:100B000008B5094B1B888B4203D8084B1B889342BE
:100B100005D9074B074A0848A32123F03BFE074BA2
:100B20001980074B1A8008BD7C3601207E360120D3
:100B3000175902087A590208D25802088236012051
:100B400084360120034690F87A0018B1586803688B
:100B50001B68184770470000012108B500220846AD
:100B600006F07DFC0A4B186028B90A4B0A4A282176
:100B70000A4823F00FFE00220421012006F00EFD9A
:100B8000074B186018B9074B034A2C21F0E708BD42
:100B9000C0030020BD590208065A0208355A02084F
:100BA000BC030020835A0208024B4FF0FF31186843
:100BB00006F09FBCC0030020014B186806F0C5BCBE
:100BC000C0030020024B0021186806F092BC00BF51
:100BD000C0030020FFF7F0BF03480449006800236A
:100BE0001A4606F016BD00BFBC030020040000201A
:100BF00013B5084C00231A4601A9206806F03AFDF7
:100C000020684FF0FF33002201A906F033FD02B047
:100C100010BD00BFBC03002003685B6C18470120B7
:100C2000704703689B6A1847FEE740F2EF30704751
:100C3000054B0360054B4FF08062C3F88820BFF37B
:100C40004F8FBFF36F8F7047B868020800E100E074
:100C500010B504464FF45A61FFF7EAFF204622F030
:100C60005DFE204610BD000082B0002301930E4BB4
:100C70001A6B42F400021A631A6B02F4000201922A
:100C8000019A1A6942F400021A611A6922F40002F8
:100C90001A61064B064A1A61064A5A61064B4FF022
:100CA00080629A6002B0704700380240D02700206E
:100CB000090F0008290C000800E100E008B50A2827
:100CC00009D8DFE800F006100E0808080810101018
:100CD0001000022008BD054B054A0648902123F06C
:100CE00059FD0020F6E70120F4E700BFC55A0208CD
:100CF000E05A02082B5B020838B50C46887FFFF7E4
:100D0000DDFFA58AE28A164B2169586342EA054253
:100D10005A64628BD963521B1A642568082D0ED160
:100D20009A611A615862207F0E4A42EA0062DA61D3
:100D3000E2681A620C4A5961D9601A6038BD002213
:100D4000D8611A61E1680A0A480902F4784200F49D
:100D5000FC600243C1F3C4010A439A63034AECE70F
:100D600000B002400900010001230200012303003A
:100D700008B50B280BD8DFE800F00612100A0A0AA3
:100D80000A0808080808022008BD0520FCE7054BF2
:100D9000054A06486F2123F0FDFC0020F4E70120FE
:100DA000F2E700BFC55A0208775B02082B5B020816
:100DB0002DE9F04191F81D800C464046FFF7D8FF21
:100DC000A77F05463846FFF7D3FF06463846FFF7AC
:100DD00075FFA18A628B444B521A1A649A61228B66
:100DE000521A1A61E28A586342EA01425A6421693E
:100DF0006268D963DA602068802828D0227F0FD803
:100E0000202867D0402865D004281AD0364B45EA00
:100E1000026545F40035B845DD6161D0334A44E0F0
:100E2000B0F5807F04D0B0F5007FEFD1304800E00E
:100E3000304840EA0262DA61E2681A625E62596131
:100E400032E045EA026242F40032DA61F6E7A06875
:100E5000021DDA62227F45EA026545F40035DD6154
:100E60005E625961017841B1012921D0224B234AA8
:100E700023484FF48D7123F08DFCDA69418822F408
:100E80007F42013922F0100242EA0122DA61012197
:100E9000154BDA6942F02002DA61DA699206FCD475
:100EA00010229A600029B9D0164A1A60BDE8F08174
:100EB000B2F1FF01DA69408822F47F4200F1FF308D
:100EC00022F0100242EA002242F0100218BF012173
:100ED000DA61DDE745EA0262034B42F40032B4E72F
:100EE00042F20132E1E700BF00B0024001230100FD
:100EF000090002000A000200C15B0208DB5B020875
:100F00002B5B020801230200024B1B685868036830
:100F10005B6918478836012070B5044625460A4BA0
:100F20000C30002660602672667245F8203B602215
:100F3000294609F0F7FF04F55A63EE6024359D4217
:100F4000FBD1204670BD00BFB8680208034B1A6889
:100F5000D207FCD423229A60704700BF00B0024041
:100F60007047000030B50F4C2568ED07FCD42325F1
:100F70000904A56041F001010225FF2B656361644E
:100F8000E0630AD00849656241EA0363E361074B05
:100F900022626061E060236030BDE561039BA36372
:100FA000034BF8E700B00240090001000100020015
:100FB0000100030030B50E4C2568ED07FCD4232555
:100FC0001204A56042F001020225FF2B65636264F2
:100FD000E063E16008D01B0643F00213E361054BB8
:100FE00065626061236030BD034BE3610123F9E773
:100FF00000B0024001000200020002FF30B50B4CBD
:101000002568ED07FCD4232512041B06A56043F4D4
:101010000033022542F0010265636264E063E1602F
:10102000E361034B65626061236030BD00B0024044
:10103000010002000120704714207047142303FBB5
:10104000010008307047142303FB0100083070478B
:101050000120704741F21410704741F2141303FB52
:1010600001000830704741F2141303FB01000830FF
:101070007047012070471020704700EB01100830C6
:10108000704700EB011008307047084601F010BBB4
:1010900010B5034B0360044608F05DFA204610BD0E
:1010A0007069020810B50446FFF7F2FF20461C21C4
:1010B00022F034FC204610BD10B5034B03600446FB
:1010C00008F049FA204610BD3C69020810B50446F4
:1010D000FFF7F2FF204641F21C1122F01FFC2046D0
:1010E00010BD000010B5034B0360044608F033FA4E
:1010F000204610BD0869020810B50446FFF7F2FF4C
:101100002046182122F00AFC204610BD10B5094BDC
:101110000360044600F58A500830FFF7B9FF04F178
:101120002C00FFF7C9FF04F11400FFF7DBFF204696
:1011300010BD00BFA469020808B50248FFF7E6FF2A
:1011400008BD00BF9C12002010B50446FFF7DEFF6B
:10115000204641F2CC2122F0E1FB204610BD0000E8
:101160002DE9F34101F008F9054601F009F90024E1
:101170000146234628462246009413F01DFB274BC8
:10118000274A1A60204603F0D1F8264D264B274AFD
:1011900027489A6013F078FA2B68BFF35B8FDB0760
:1011A00036D4284622F0BCFB90B3224C224F234B6E
:1011B000236007F1280604F1140004F12C08606094
:1011C000C4F80880E760266108F0C6F91C4B63612B
:1011D000404608F0C1F91B4BE362384608F0BCF901
:1011E00004F5805303F5B270174AC3F8482103F0A1
:1011F00021F9224607F11C01304603F011F930466F
:1012000001F056FA114823F0E3FA284622F094FB45
:101210000F4802B0BDE8F041FFF7E4BBEC36012017
:101220004804002098120020680400204C0400208C
:10123000080000209C120020E4230020A46902087A
:10124000086902083C69020870690208391100083F
:10125000C4030020704700000148FFF7D1BB00BF66
:10126000C403002070B5264E264C274D274B236023
:101270003046FFF751FE284618F0A4FB244810F032
:10128000BFFE244B2448DC6000224FF48071C3E988
:10129000121222491A86C3E91A12214983F85820EA
:1012A000C3E91E011F49C3F880101F491F480B6086
:1012B000F021C3E90422C3E90622C3E90822C3E9F5
:1012C0000A22C3E90E22C3E91022C3E91422C3E9AA
:1012D00017225A6683F870205A67C3E901650180B6
:1012E0001348018013484FF4A07101801248018017
:1012F00012490A70012283F83420114A1A6070BD25
:10130000F404002094120020680400203C580208D5
:101310004C040020C4030020000001010100000172
:10132000000450001A001400883601207C36012089
:10133000823601207E36012084360120803601204D
:10134000CC6702080148FFF773BC00BFF40400201B
:101350000020704781807047C180704701817047CD
:10136000418170477047704770477047704710B4AD
:10137000C4880368121B84885B6D091B12B25DF878
:10138000044B09B218474FF6FF7383814FF0FF33C8
:1013900003621368C36110607047002070478B8838
:1013A000838001207047704780F82610704790F8BE
:1013B0002600704710B50022B1F90840B1F90A10B3
:1013C000028042808480C18010BD00220280428061
:1013D0008280C28070470177704780ED080A7047AD
:1013E00080F82410704780F825107047012070475E
:1013F000983070478C307047843070477047704722
:1014000070470000034B902283F85A2383F8582337
:10141000704700BF00E100E0094A0A49D3680A4862
:10142000C3F30A03013B9BB20B801169C1F30A01AC
:10143000013901801364536B43F001035363704718
:10144000006801406A25002068250020014BD3F880
:10145000AC00704700680140024B0122C3F8AC1099
:101460005A6270470068014010B52C21044622F0F2
:1014700055FA204610BD10B5BC21044622F04EFAA4
:10148000204610BD70B5044608F079FE23689D6EB5
:101490000FF0DCFA01462046A8472368054AD3F836
:1014A0008C502046AC460023BDE87040A2F51631B2
:1014B000604700BF00B004D008F048BE08F052BE3C
:1014C00008F00EBE08F07DBF90F8252012B1036829
:1014D0005B691847704790F825201AB190F82420CE
:1014E00002B1186070470000034B4FF080629A60B1
:1014F0004FF080729A60704700E100E0084B4FF0B7
:101500008062C3F88820BFF34F8FBFF36F8F4FF017
:101510008072C3F88820BFF34F8FBFF36F8F70477F
:1015200000E100E070B50023124E8380124B03608F
:10153000336893F8582005460AB1D86C00B998680A
:101540000368DB6A98473368B0FA80F4D86C6409A2
:1015500030B10368DB6A9847002808BF44F00104F3
:101560002CB9064B064A07482C2123F013F92846CC
:1015700070BD00BF88360120B8690208195C0208F6
:10158000775C0208B05C020870B5254E3568BFF381
:101590005B8F15F0010540D1304622F0C1F90028DB
:1015A0003BD0204C204B256104F13400C4E90035C8
:1015B000C4E90255E584A562A58511F006F804F199
:1015C00058000BF085FF194BA3652046184B40F8D7
:1015D000843BFFF7A7FF174BC4F884302433C4F8CB
:1015E0008C304FF4C803C4E928350023C4F8AC306C
:1015F000C4F8B030C4F8B430C4F8B8300E480F4B5B
:10160000C4F89050C4F89C50C4F8A850C4F898305E
:1016100023F0DEF8304622F08FF9024870BD00BF9B
:101620006C2500207025002098750208D8690208F2
:10163000506A02084C75020801140008EC74020894
:1016400038B5184C23685BB3174B184A1B6C1188CC
:101650008B4216D1164B198804F08EFC236893F840
:101660006A200025013283F86A2083F87C50FFF756
:10167000B3FA206809F000FB2846BDE83840FFF7C0
:10168000F3B804F079FC2468236820461B6A984765
:10169000012384F87C300020BDE83840FFF70EB904
:1016A00038BD00BF88360120006801406A2500204F
:1016B0006825002007B5064BADF806001B680548F5
:1016C00001220DF1060105F0F7F903B05DF804FB06
:1016D0000C0000207C26002007B50B4C0B4D0C4E57
:1016E0000121204603F03AFE012808D1002330688A
:1016F00000951A4669468DF8043005F08AFF782077
:1017000005F0A1FEECE700BF000002406A756D70B5
:101710003C26002030B595B0102200210AA823F005
:1017200040FA1422002103A823F03BFA00241E4BA8
:1017300001941A6C42F080521A641B6C03F08053BF
:101740000193019B194B02941A6842F440421A60BB
:101750001B6803F4404302930122029B4FF4803341
:10176000CDE9082302254FF480030821CDE90E536B
:101770004FF4B473CDE9101308A804231393129502
:1017800004F052FC04F016FC0F23CDE903354FF4AE
:10179000A0504FF48053CDE90603052103A805941A
:1017A00004F01EFE15B030BD00380240007000404D
:1017B00080B59AB003F052FBFFF7ACFF1422002172
:1017C0000DA823F0EEF90024C74B00941A6BC7480C
:1017D000C74D42F010021A631A6B02F01002009219
:1017E000009A01941A6B42F020021A631A6B02F0FD
:1017F00020020192019A02941A6B42F080021A634D
:101800001A6B02F080020292029A03941A6B42F061
:1018100004021A631A6B02F004020392039A0494FE
:101820001A6B42F001021A631A6B02F00102049271
:10183000049A05941A6B42F002021A631A6B02F0C2
:1018400002020592059A06941A6B42F040021A634E
:101850001A6B02F040020692069A07941A6B42F045
:1018600008021A631B6B03F00803224607933C210E
:10187000079B03F079FD9F480122022103F074FDCC
:1018800022469C48042103F06FFD22469A484FF4FB
:10189000405103F069FD01263C23CDE90D36934804
:1018A0000F9403230DA90227109303F073FC9148B2
:1018B0000DA9CDE90D76CDE90F4403F06BFC0423AF
:1018C0008C480DA9CDE90D36CDE90F4703F062FC38
:1018D0000DA94FF440538848CDE90D36CDE90F47A7
:1018E00003F058FC8548864B036003F049FBDFF8A2
:1018F00038C2844B2C62C5E900C328464FF48043AC
:10190000C5E90434C5E90244C5E9064403F03AFFD9
:101910001021284604F07EF92146284604F099F962
:10192000794DDFF808E2AC624FF48273C5E900E359
:101930004FF400781823C5E9068328460A23C5E931
:101940000244C5E90444C5E90844EB6205F058F8CF
:101950008F232246394667488DF824308DF834406D
:1019600003F002FD32464FF47A7309A9284605F0C8
:10197000A3F84FF47A7332460DA9284605F048FAC9
:10198000324639465B48614D03F0EEFC9DF8343039
:10199000D32B04BF5E4B1E705E4B0126C5E900369B
:1019A000102240230024C5E904234FF4C073C5E985
:1019B00006344FF40063C5E908344FF4005302279E
:1019C0004FF00409AB624FF0030A07230DA9284624
:1019D000CDE90F93CDE90D734FF00808C5E9024931
:1019E000CDE911A7139704F0EFFE4FF6FF7209A996
:1019F0002846CDE90A86089409960C9404F004FF61
:101A0000304603F057FA4FF6FF7209A92846CDE990
:101A10000978CDE90B6404F0F7FE4FF6FF7209A9CF
:101A20002846CDE90B94CDE909A804F0EDFE4FF46A
:101A30000C730893089B0C934FF6FF7209A9284674
:101A4000CDE909980B9604F0DFFE40F26A51284672
:101A500004F0F8FE34220DEB0200214623F0A1F839
:101A60002D4D2E4B2C61C5E900340923C5E90536FF
:101A70001D23C5E9073A40F20D1140F24313C5E9B1
:101A8000091340F2171040F24713C5E90B0328462B
:101A9000C5E90244AC8685F8364004F075F9FF21AB
:101AA000F022CDE912144FF005094FF480614FF494
:101AB000A073CDE90E24CDE91419CDE916420DA984
:101AC00022462846CDE91037154D18930D94ADF8F0
:101AD00064408DF8664004F022FA124B2B601B68BC
:101AE00098472B6824E000BF0038024000100240F5
:101AF0007C27002000080240000C02401028002033
:101B000000300240A08601007C26002048260020EC
:101B100030260020400100A0D426002000680140AB
:101B20002C2600202C000020005C004000500140CA
:101B3000184DDB689847184B2846C5E90034C5E9BD
:101B40000274C5E90A47C5E90C4403F029FA314695
:101B5000284603F0DBFAFEF7BBFDFEF7B8FD05F003
:101B6000FBFB0E4A4946404605F018FD0C4B0D4A5A
:101B7000186021460C4805F022FC0C4B0C4A1860FA
:101B800021460C4805F01BFC0B4B186005F0F6FBDA
:101B9000FEE700BFD027002000B00240946A020890
:101BA0003C260020D06A0208D916000844260020EE
:101BB000AC6A0208DF060008402600207047704724
:101BC0007FB5094B8DF817201B6802930DF11702A2
:101BD0000123009201930A460146044803F07AFE6D
:101BE00007B05DF804FB00BF100000207C27002038
:101BF0007FB500238DF81730084B1B6802930A4607
:101C000001230DF11701009101930146044803F0EF
:101C1000F1FE9DF8170007B05DF804FB10000020EE
:101C20007C2700201FB5084C24680092CDE90134C0
:101C30000A4601230146054803F0DCFE003818BFC0
:101C4000012004B010BD00BF100000207C27002040
:101C500003F030B910B5064C00222046042103F0F1
:101C600083FB20460122BDE81040042103F07CBB29
:101C70000008024038B50B4D044601220A484FF4D3
:101C8000005103F071FB00220421284603F06CFB95
:101C90002046FFF70FFD28460122BDE83840042109
:101CA00003F062BB00080240000C024038B50B4D47
:101CB000044600220A484FF4005103F055FB00226D
:101CC0000421284603F050FB2046FFF7F3FC28468A
:101CD0000122BDE83840042103F046BB0008024061
:101CE000000C0240F7B5144E144F05460C46304622
:101CF0000022042103F038FB00224FF40051384643
:101D000003F032FB2846FFF7D5FC0D4B0D481B684E
:101D1000224601A905F07CF8384601224FF4005113
:101D2000019C03F021FB30460122042103F01CFB3F
:101D3000204603B0F0BD00BF00080240000C024086
:101D40000C0000207C26002003F0B4B80268034B8E
:101D50009A4201D103F09CB8704700BF00100040C8
:101D60007047000082B00E4B00220092596C41F483
:101D700080415964596C01F48041009100990192AD
:101D8000196C41F0805119641B6C03F0805301936E
:101D9000019B0F216FF0010002B003F0B1B800BF4A
:101DA000003802400268094B9A4282B00BD10023EE
:101DB0000193074B1A6B42F480521A631B6B03F4B6
:101DC00080530193019B02B0704700BF0030024076
:101DD0000038024007B50F4B02689A4216D1002224
:101DE000A3F5F0430192196B41F4000119631B6BD9
:101DF00003F40003019305215A20019B03F080F8AE
:101E00005A2003B05DF804EB03F0ACB803B05DF802
:101E100004FB00BF00B002402DE9F043044689B046
:101E20001422002103A822F0BCFE2268244B9A420F
:101E300043D1244C244800250095236B43F0040330
:101E40002363236B03F004030093009B0195236B32
:101E500043F001032363236B03F001030193019B10
:101E60004FF012094FF400734FF0010803270426C6
:101E700003A9CDE90339CDE90587079603F08AF96F
:101E80004FF480731148079603A9CDE90339CDE9D2
:101E9000058703F07FF90295236C43F40003236464
:101EA000236C03F400030293029B236A43F40003B0
:101EB0002362236A23F40003236209B0BDE8F083A0
:101EC000005C004000380240000802400000024070
:101ED000F0B599B004461422002107A822F061FE53
:101EE00030220DEB0200002122F05BFE22685E4BE7
:101EF0009A4240F0B78008230C93C0231093042328
:101F000012930CA84FF40033159304F031FB08B181
:101F1000FFF726FF554B5648002400945A6C42F0B8
:101F200080625A645A6C02F080620092009A0194B6
:101F30001A6B42F020021A631A6B02F0200201921F
:101F4000019A02941A6B42F001021A631A6B02F0B2
:101F500001020292029A03941A6B42F002021A637F
:101F60001A6B02F002020392039A04941A6B42F075
:101F700040021A631A6B02F040020492049A05941C
:101F80001A6B42F004021A631A6B02F00402059203
:101F9000059A06941A6B42F008021A631B6B03F051
:101FA0000803069302250E26069B0B964FF48063CA
:101FB00007A9CDE90735CDE9094503F0EBF841F66E
:101FC00058032C480B9607A9CDE907350927CDE919
:101FD000094503F0DFF8032327480B9707A9CDE94C
:101FE0000735CDE9094503F0D5F84FF47063224871
:101FF0000B9607A9CDE90735CDE9094503F0CAF8E5
:102000004FF40C631D480B9607A9CDE90735CDE9C0
:10201000094503F0BFF8C02319480B9607A9CDE97D
:102020000735CDE9094503F0B5F8082315480B96A7
:1020300007A9CDE90735CDE9094503F0ABF84FF421
:10204000A0530E480B9707A9CDE90735CDE90945FF
:1020500003F0A0F858202246052102F051FF582035
:1020600002F080FF19B0F0BD006801400038024066
:102070000014024000000240000402400018024028
:1020800000080240000C024010B5044688B014223B
:10209000002103A822F085FD2268144B9A4223D127
:1020A00003F56843002101915A6C114842F48012F3
:1020B0005A645A6C02F480120192019A02911A6BCE
:1020C00042F020021A631B6B03F020030293029B71
:1020D0004FF4607202230321CDE903230523CDE9E8
:1020E000061303A903F056F808B010BD00500140D4
:1020F000001402402DE9F04186B0002303932B4BDE
:102100001C68002C4FD14FF00108C3F80080284B09
:1021100000949A6B274842EA08029A639B6B03EA91
:1021200008030093022703260C25009B01A94FF604
:102130003F03CDE90137CDE9046503F02BF81E48D4
:10214000059501A9CDE90187CDE9034603F022F801
:1021500048F233131948059501A9CDE90137CDE9B6
:10216000034603F017F84FF683731548059501A948
:10217000CDE90137CDE9034603F00CF84CF20373C7
:102180001048059501A9CDE90137CDE9034603F0D3
:1021900001F860230C48059501A9CDE90137CDE987
:1021A000034602F0F7FF06B0BDE8F08118280020D2
:1021B00000380240001402400008024000180240AB
:1021C00000100240000C02400004024070B588B0CC
:1021D00000230293204B1A6C42F010021A641B6C0D
:1021E00003F010030293054601A903A8029B04F023
:1021F000A1F9069B4BBB04F08DF9184E184B3360C8
:1022000040F2E733F360174BB0FBF3F3013B73602D
:10221000304600233361B360B36104F0C9FF044664
:1022200080B9304604F09AFE044658B9362002F0D0
:1022300099FE0F2D0DD822462946362002F060FE69
:10224000094B1D60204608B070BD04F063F94000E2
:10225000D3E70124F6E700BF003802401C28002025
:102260000010004040420F00940000207047FEE73D
:10227000FEE7FEE7FEE77047014804F0ADBE00BF91
:102280001C280020014803F0EDBD00BFD42600202B
:10229000014802F0B1BE00BFD027002001207047E6
:1022A00008B522F021FD162303604FF0FF3008BD72
:1022B00008B522F019FD16230360FEE770B50D4640
:1022C00014460E46731B9C4201DC204670BDAFF3E2
:1022D000008006F8010BF5E770B50D4614460E4672
:1022E000731B9C4201DC204670BD16F8010BAFF356
:1022F0000080F5E74FF0FF3070474FF400534B601C
:102300000020704701207047002070470A4A11687A
:1023100008B5034609B909491160106869460344C4
:102320008B4206D922F0E0FC0C2303604FF0FF3013
:1023300008BD1360FCE700BF64280020C8430120EB
:10234000704710B50421044621F0E8FA204610BD7C
:10235000012908B506D0022908D059B902F032F88F
:10236000006808BD02F02EF84068FAE702F02AF88B
:102370008068F6E70020F4E700487047086B020821
:102380000C20704713B5002451B1036801948DF8F7
:10239000034001AA9C680DF10303A04702B010BDE1
:1023A0000846FBE7C0897047008A7047C0887047BD
:1023B00080887047807A00F07F007047807AC0097B
:1023C00070470020704700009FED010A704700BF72
:1023D00000000000704710B50821044621F09EFA65
:1023E000204610BD7047704700F59873086849682B
:1023F00003C370477047704741607047704770472C
:10240000064BC0F84C310023C0F8503100F5A273E0
:10241000C0F84801C0F84031704700BFDD2800080F
:1024200001230372704770477047704770477047C9
:1024300010B4C26841685410034601EB6200D20731
:1024400048BF0A599B685DF8044B48BFD3581847EA
:102450000346406830B19A681AB9D86800F00100A4
:1024600070470120704710B50C21044621F056FA40
:10247000204610BD10B51421044621F04FFA204625
:1024800010BD10B51421044621F048FA204610BDB5
:1024900010B51021044621F041FA204610BD10B5B8
:1024A0004FF4AE71044621F039FA204610BD10B544
:1024B0000EF0CCFA0368BDE81040DB6B184710B58E
:1024C0000EF0C4FA0368BDE810405B6B184710B506
:1024D0000EF0BCFA0368BDE810405B6B18470000C3
:1024E00013B50446807A637A0130C0B29842A07274
:1024F00005D9012323720023A37202B010BDB4F9E1
:102500000C20002110F056FDC30707D500284FF618
:10251000FF73C8BF012313FA80F000B2144AE081B0
:1025200012880023ADF8023083B2D21AADF8002031
:10253000228A20829B1AADF804300E4B1B88ADF81E
:1025400006300EF083FA036802AA1B6C12E906003B
:102550009847A37A012BD0D1074B1B78002BCCD006
:102560000EF074FA02B0BDE810400EF075BA00BF6C
:102570007C3601207E3601208636012013B50446C4
:10258000807A637A0130C0B29842A07205D90123E3
:1025900023720023A37202B010BDB4F90C200021F5
:1025A00010F008FDC30707D500284FF6FF73C8BF1A
:1025B000012313FA80F000B20023ADF80230B4F921
:1025C0001030ADF80030C31AADF804300D4BE08187
:1025D0001B882082ADF806300EF038FA036802AA94
:1025E0001B6C12E906009847A37A012BD3D1064B46
:1025F0001B78002BCFD00EF029FA02B0BDE81040B6
:102600000EF02ABA7E3601208636012010B5044627
:10261000D0F8400158B10368DB68984738B1D4F866
:10262000400103689B6898470023C4F8403110BDFF
:10263000044B1B6893F858200AB1D86C00B998680D
:10264000704700BF88360120F8B5174604460E468D
:102650000EF030FB124B1C60124B2360124B002516
:10266000C4E95135114BC4E9535518680368012179
:102670009B68C4E94F55C4E955769847284601F050
:1026800055FEFFF7D5FF19F046F8FFF7D1FF19F017
:10269000BDF8FFF7CDFF19F0C5F82046F8BD00BF23
:1026A000DC360120286C0208106C020888360120F4
:1026B000064BC0F84C310023C0F8503100F5A2732E
:1026C000C0F84801C0F84031704700BFDD2800085D
:1026D000064BC0F84C310023C0F8503100F5A2730E
:1026E000C0F84801C0F84031704700BF7D2700089E
:1026F000064BC0F84C310023C0F8503100F5A273EE
:10270000C0F84801C0F84031704700BF592E00089A
:10271000064BC0F84C310023C0F8503100F5A273CD
:10272000C0F84801C0F84031704700BFF52C0008E0
:10273000064BC0F84C310023C0F8503100F5A273AD
:10274000C0F84801C0F84031704700BF912B000825
:10275000064BC0F84C310023C0F8503100F5A2738D
:10276000C0F84801C0F84031704700BF2D2A00086A
:1027700003685B6A184703685B6A18472DE9F14FE5
:10278000D0E9556A0746B06803681B6A9847B0F5F8
:10279000387F05D2484B494AA321494821F0FAFF26
:1027A000706803681B6A98470F2803D8454B434A53
:1027B000A421F2E7F06803681B6A9847132803D83E
:1027C000414B3E4AA521E8E70EF040F9DFF80491BD
:1027D00004300EF0A1F9D9F8000010B10368DB68ED
:1027E0009847D9F8000010B103681B689847DFF8D4
:1027F000E880D8F8000010B103685B699847D7F803
:102800003C0110B103685B689847D8F8000010B12C
:1028100003681B689847D7F83C0110B103689B68B0
:102820009847F068036800215B6A9847274B03606C
:102830004FF4A0530381264B4FF0000B1B8880F808
:102840000AB0044683815946C0F804B0A0F80EB01F
:10285000A0F810B0B068FFF78BFF054601F032FE1C
:1028600059467068FFF787FF2946064601F000FECB
:10287000331DC7F83C61CAF808302B68C6F808A0B9
:102880002846DB68C9F80040C8F80050EE63984756
:10289000336830461B6898472146284610F084FB71
:1028A000236820461B69984723685B69204601B06E
:1028B000BDE8F04F184700BF2E5D0208BC5D02085E
:1028C000A05E0208E75E02088A5F0208C46C020884
:1028D0007C360120D0360120CC3601202DE9F14F85
:1028E000D0E9556A0746B06803681B6A9847B0F597
:1028F000387F05D2434B444AA321444821F04AFF84
:10290000706803681B6A98470F2803D8404B3E4AFB
:10291000A421F2E7F06803681B6A98470B2803D8E4
:102920003C4B394AA521E8E70EF090F8DFF8EC902F
:1029300004300EF0F1F8D9F8000010B10368DB683C
:102940009847D9F8000010B103681B689847DFF872
:10295000D080D8F8000010B103685B699847D7F8B9
:102960003C0110B103685B689847D8F8000010B1CB
:1029700003681B689847D7F83C0110B103689B684F
:102980009847F068036800215B6A98474FF0000B96
:10299000214B036004465946C0F804B080F808B0E3
:1029A000B068FFF7E5FE054601F08CFD59467068FA
:1029B000FFF7E1FE2946064601F05AFD331DC7F830
:1029C0003C61CAF808302B68C6F808A02846DB68C6
:1029D000C9F80040C8F80050EE63984733683046A5
:1029E0001B6898472146284610F0DEFA23682046E7
:1029F0001B69984723685B69204601B0BDE8F04F2A
:102A0000184700BF2E5D02082D600208A05E020874
:102A1000E75E02088A5F02087C6C0208D03601205B
:102A2000CC36012003685B6A184700002DE9F14F9E
:102A3000D0E955BA0746DBF8080003681B6A9847D7
:102A400041F20B13984205D8484B494AA321494803
:102A500021F0A0FEDBF8040003681B6A98470F28EA
:102A600003D8454B424AA421F1E7DBF80C00036888
:102A70001B6A9847132803D8404B3D4AA521E6E737
:102A80000DF0E4FFDFF8009104300EF045F8D9F8BE
:102A9000000010B10368DB689847D9F8000010B156
:102AA00003681B689847DFF8E480D8F8000010B18D
:102AB00003685B699847D7F83C0110B103685B680D
:102AC0009847D8F8000010B103681B689847D7F8FA
:102AD0003C0110B103689B689847DBF80C000021AB
:102AE000FFF7A0FF264B03604FF4A0530381254B53
:102AF000002686721B8846600446C6810682838152
:102B0000DBF80800036831465B6A9847054601F028
:102B1000EBFEDBF80400036831465B6A9847294600
:102B2000064601F0BFFE331DC7F83C61CAF8083005
:102B30002B68C6F808A02846DB68C9F80040C8F82A
:102B40000050EE639847336830461B68984721462B
:102B5000284610F029FA236820461B699847236805
:102B60005B69204601B0BDE8F04F18472E5D0208B2
:102B7000FF600208A05E0208E75E02088A5F0208A2
:102B8000A06C02087C360120D0360120CC36012012
:102B90002DE9F14FD0E955BA0746DBF80800036884
:102BA0001B6A984741F20B13984205D8484B494A93
:102BB000A321494821F0EEFDDBF8040003681B6AFD
:102BC00098470F2803D8454B424AA421F1E7DBF888
:102BD0000C0003681B6A9847132803D8404B3D4AF2
:102BE000A521E6E70DF032FFDFF8009104300DF08B
:102BF00093FFD9F8000010B10368DB689847D9F853
:102C0000000010B103681B689847DFF8E480D8F82B
:102C1000000010B103685B699847D7F83C0110B118
:102C200003685B689847D8F8000010B103681B6818
:102C30009847D7F83C0110B103689B689847DBF8C8
:102C40000C000021FFF7EEFE264B03604FF4A0536B
:102C50000381254B002686721B8846600446C68188
:102C600006828381DBF80800036831465B6A984777
:102C7000054601F0FDFDDBF80400036831465B6AA0
:102C800098472946064601F0D1FD331DC7F83C613F
:102C9000CAF808302B68C6F808A02846DB68C9F8CF
:102CA0000040C8F80050EE639847336830461B6810
:102CB00098472146284610F077F9236820461B697B
:102CC000984723685B69204601B0BDE8F04F18477C
:102CD0002E5D0208E3610208A05E0208E75E0208BA
:102CE0008A5F0208A06C02087C360120D0360120E1
:102CF000CC3601202DE9F14FD0E955BA0746DBF873
:102D0000080003681B6A984741F21313984205D8DC
:102D1000484B494AA321494821F03CFDDBF8040017
:102D200003681B6A98470F2803D8454B424AA421E1
:102D3000F1E7DBF80C0003681B6A9847132803D8F7
:102D4000404B3D4AA521E6E70DF080FEDFF80091FB
:102D500004300DF0E1FED9F8000010B10368DB6823
:102D60009847D9F8000010B103681B689847DFF84E
:102D7000E480D8F8000010B103685B699847D7F881
:102D80003C0110B103685B689847D8F8000010B1A7
:102D900003681B689847D7F83C0110B103689B682B
:102DA0009847DBF80C000021FFF73CFE264B036040
:102DB0004FF4A0530381254B002686721B88466082
:102DC0000446C68106828381DBF808000368314629
:102DD0005B6A9847054601F0D9FBDBF804000368FD
:102DE00031465B6A98472946064601F099FB331D38
:102DF000C7F83C61CAF808302B68C6F808A0284616
:102E0000DB68C9F80040C8F80050EE6398473368A3
:102E100030461B6898472146284610F0C5F82368BD
:102E200020461B69984723685B69204601B0BDE8CE
:102E3000F04F18472E5D0208C7620208A05E020824
:102E4000E75E02088A5F0208A06C02087C36012057
:102E5000D0360120CC3601202DE9F14FD0E9556A5A
:102E60000746B06803681B6A9847B0F5387F05D2FB
:102E7000474B484AA321484821F08CFC70680368FE
:102E80001B6A98470F2803D8444B424AA421F2E713
:102E9000F06803681B6A9847132803D8404B3D4AE3
:102EA000A521E8E70DF0D2FDDFF8009104300DF028
:102EB00033FED9F8000010B10368DB689847D9F8F1
:102EC000000010B103681B689847DFF8E480D8F869
:102ED000000010B103685B699847D7F83C0110B156
:102EE00003685B689847D8F8000010B103681B6856
:102EF0009847D7F83C0110B103689B689847F06881
:102F00000021FFF78FFD274B03604FF4A05303818F
:102F1000254B4FF0000B1B8880F80AB004468381D4
:102F20005946C0F804B0A0F80EB0A0F810B0B068D0
:102F3000FFF71EFC054601F0C5FA59467068FFF719
:102F40001AFC2946064601F093FA331DC7F83C6186
:102F5000CAF808302B68C6F808A02846DB68C9F80C
:102F60000040C8F80050EE639847336830461B684D
:102F700098472146284610F017F8236820461B6919
:102F8000984723685B69204601B0BDE8F04F1847B9
:102F90002E5D0208AB630208A05E0208E75E02082D
:102FA0008A5F0208A06C02087C360120D03601201E
:102FB000CC360120406A7047806A704770478A8823
:102FC0000B8810B5D20A4C88C1699BB251F8220017
:102FD00043EA0443184410BD10B50446BAB1107B4F
:102FE00068B1537BD27A1B0203F4E0631A43236A6D
:102FF00003EB82031A888A4202D193F9020010BDC2
:1030000005D8013880B204330028F3D1F7E7002057
:10301000F5E710B52C21044620F080FC204610BDB9
:1030200030B58BB00446BDF860500895BDF85C50D3
:1030300007959DF8505006959DF84C5005959DF8C4
:10304000485004959DF8445003959DF840500295D2
:103050009DF83C500195BDF8385000950FF072FB7B
:10306000064B2360159BE361169B2362199B6362E9
:103070001A9BA36220460BB030BD00BFE86C02086B
:103080007047704770477047704770477047704788
:1030900070470368DB6A184730B4C268446855104B
:1030A000034604EB6200D20748BF62599B6830BCFC
:1030B00048BFD35818470346406830B19A681AB9D8
:1030C000D86800F0010070470120704710B510214A
:1030D000044620F023FC204610BD10B54FF4377194
:1030E000044620F01BFC204610BD38B500F5FA73ED
:1030F000994204460D4603D10DF0A8FCFFF708FBEA
:1031000004F50F739D4203D10DF0A0FCFFF710FBF7
:1031100004F52174A54205D10DF098FCBDE83840B6
:10312000FFF716BB38BD70B5036804461B6B154628
:1031300098472368294620465B6BBDE870401847D6
:103140000022C0E90122C0E90322C0E90522C0E94A
:1031500007224FF480728284014A0260704700BFE8
:10316000506D0208F8B5194B018F1B888B4206463B
:103170002AD9174B1B682BB9164B174A17486C21D5
:1031800021F008FB13F81120154B1B6853F822504F
:10319000144B186801F006F92B6807469B6B28460C
:1031A00098472B6804469B6C3946284698472B68FD
:1031B00014FB00F45B6A394628469847A4B22318EA
:1031C0001BB2A6F84630F8BD0023FAE7E43601202A
:1031D000E03601208F640208D16402080C65020801
:1031E000E8360120EC3601202DE9F04F04468FB07F
:1031F000274600250FF02CFD9F4BE56347F8403B29
:103200004FF0260842462946384621F0CAFC384687
:10321000FFF796FF04F16C0B984B2364FF264246A0
:10322000294684F86660A5664FF6FF795846ADF8E2
:10323000309021F0B6FC5846FFF782FF904BE366D2
:10324000BDF83030A4F892300CA984F89460584648
:1032500004F198060AF0F8FE04F5D67A304606F036
:1032600099FA29464246504621F09BFC5046FFF70A
:1032700067FF844BC4F8AC31834BC4F8D43104F5F8
:10328000FA724FF47F03A4F8D8914FF0FF39C4F8D5
:10329000E031C4E97B95C4F8DC51A4F8E451C4F8EA
:1032A000E851104603920BF011F804F50F72104626
:1032B00004920BF00BF804F52172104605920BF006
:1032C00005F8724BC4E9B334714B2A46C4E9B535ED
:1032D00029463846FFF727FF3846F021FEF73EF82B
:1032E00038464FF4A071FEF73BF804F104084FF0A4
:1032F0007F42A2663946404606F056FC2A462946D9
:103300005846FFF710FF08230CA95846ADF8303097
:103310000AF09AFE5946404606F046FC30464B22DB
:103320002121FFF700FF1E230093304696230A2237
:103330000C2106F010FA64222B46009529463046EF
:1033400006F08AFA3046534906F079F94E4B0C9351
:103350000CA907233046ADF83430062706F09CF957
:103360000CA93046ADF8307006F0B1FB2946304666
:1033700006F09EF93146404606F016FC50462222E1
:103380004221FFF7D0FE4FF07F42A4F8E05106AD96
:10339000C4F8DC21514628460AF098F995E8070060
:1033A00004F5F47383E80700374B0C930CA95046DF
:1033B000ADF834700AF024FC5146404606F0F4FBA8
:1033C0000398A0223321FFF7AEFE04270CAA0BA915
:1033D00005260398ADF82C7004F53375ADF8307000
:1033E0000AF06BFC0398A4F82C62FFF7BBFE03996C
:1033F000C4F81C524046C4E98C9906F0D5FB0498E9
:10340000D4223321FFF78FFE02230CAA0BA90498C4
:10341000ADF82C30ADF830600AF04FFC0498A4F8F9
:103420007472FFF79FFE0499C4F864524046C4E9E1
:103430009E9906F0B9FB05984FF484723321FFF78B
:1034400072FE03270CAA0BA90598ADF82C70ADF8F5
:1034500030600AF032FC0598A4F8BC72FFF782FED7
:103460004046C4E9B0990599C4F8AC5206F09CFBFB
:1034700020460FB0BDE8F08FD06D02081C7802081E
:10348000EC7802088C770208006C0208B86D02081C
:10349000EB300008371B0CFF806A704770470176DD
:1034A00070478182C282704770477047704770478B
:1034B00030B4C26844685510034604EB6200D2077A
:1034C00048BF62599B6830BC48BFD3581847034671
:1034D000406830B19A681AB9D86800F001007047A6
:1034E0000120704790F82D3080F860307047014619
:1034F000383091F82C3013B136310AF0A5BD343193
:10350000FBE710B52021044620F008FA204610BD44
:1035100010B56421044620F001FA204610BD10B514
:103520001021044620F0FAF9204610BD70B505467A
:103530000B8825F8043F0446284611F0C7FAA0710D
:10354000284611F04DF90646284611F07DF9002372
:10355000A360E081A68104F108000DF0DFF82846A1
:1035600011F030FA206170BD10B5034B03600446C2
:103570000BF072FD204610BDDC6E020810B5064B44
:10358000036004460BF068FD204641F20C1120F068
:10359000C5F9204610BD00BFDC6E020810B5044618
:1035A000006B50B10368DB68984730B1206B03684B
:1035B00021469B68BDE81040184710BD0B7970B5D7
:1035C00090F82C6004460D460BB916B170BD002E64
:1035D000FCD0B3FA83F35B0984F82C3023682046CF
:1035E000D3F88C309847236820465B699847002EB3
:1035F000ECD02B79012BE9D123682046D3F8883011
:10360000BDE87040184700F522728A4208B508D11B
:103610000368DB6A98470DF019FABDE80840FFF728
:1036200057B808BD074A02600022C0E90122C0E97C
:103630000322C0E90522C0E907224FF48072828488
:10364000704700BF307A02080B882DE9F04183866D
:103650001388B0F90850C38604461046904611F00E
:10366000BFF8B4F90A30074603EBD3734046C3F3FF
:103670004F0611F0E9F805EBD575C5F34F0500EBE2
:10368000D07007EBD777A6EB6002A5EB670104F1DA
:10369000380012B209B2FFF746FD23682046D3F87E
:1036A0008C30BDE8F041184770B504461D46BDF9A1
:1036B0001060FFF738FD2368294620469B6B98472A
:1036C000236831462046DB6BBDE870401847000098
:1036D00010B526220446002121F063FA2046FFF7A8
:1036E000A1FF044B2360FF2384F826300023A3624C
:1036F000204610BD1C78020838B5262204460D4627
:10370000002121F04EFA2046FFF78CFF064B236084
:103710002B88E384FF23204684F8283029460AF0CA
:1037200093FC204638BD00BFEC7802082DE9F04F2D
:1037300004468BB0A04600250FF08AFAA64BE5633D
:1037400048F8403B04F16C094046FFF7C1FF04F123
:10375000980A08A94FF6FF76484604F1E00BADF849
:103760002060FFF7C9FF504609F0A4F95846ADF8AC
:103770002060FDF7D7FE994BC4F8E830BDF8203043
:10378000A4F8EC3008A904F1E800C4E93C55C4E908
:103790003E5584F8EE5084F80051FFF7C7FE904B79
:1037A000C4F8E0302433C4F8E83004F586731846D2
:1037B0008C4E0593FFF78CFF04F5A073C4F80C61E1
:1037C0001846C4F83851A4F83C510493FFF780FF21
:1037D000C4F8406104F5BA76C4F86C51A4F870518D
:1037E000304605F0D7FF04F5227318460393FFF720
:1037F00019FF4FF47F43A4F8B432012384F8AC32AC
:10380000794BC4F8883204F530774FF0FF33C4F8B1
:10381000BC3208A9C4F8B052C4F8B8523846ADF862
:103820002030FFF769FF0398394606F0BDF96F4A6B
:1038300004F58053C3E93F246D4A04F53B70C3E9A6
:1038400041254FF461610BF0FDFB4FF4A0732A4654
:10385000009329464046F023FFF726FF271D4FF02F
:103860007F43A3664146384606F09EF92A4629461C
:103870004846FFF758FC082308A948464FF01E08A1
:10388000ADF820300AF0E0FB4946384606F08CF9E6
:10389000822243465046CDF800802121FFF704FFE5
:1038A0004FF4F073C4E93133C4F8CC304FF43453DF
:1038B000C4F8D4304FF00A0908A95846C4F8D850C3
:1038C000C4F8D050ADF8209007F013FFC4F8C0B092
:1038D000514638464FF4967B06F066F90598CDF8C8
:1038E00000B032236FF0C002A021FFF7DDFE4FF0E1
:1038F000050A4FF0FF324FF07F43C4E94D2305998D
:10390000A4F83CA1384606F04FF90498CDF800B071
:10391000CF223223A021FFF7C7FE4FF07F434FF0A5
:10392000FF31C4E95A1338460499A4F870A106F08F
:103930003BF930466FF003026FF03E01FFF7F3FBF7
:103940004A463046CDF8008096230C2105F003FF4F
:1039500064222B4629463046009505F07DFF30460F
:103960004FF07F4105F06BFE224B089308A93046CB
:10397000ADF8245005F090FE072308A93046ADF8B5
:10398000203006F0A4F82946304605F091FE314675
:10399000384606F009F909260398ADF81C6008AA14
:1039A00007A9ADF82060FFF74FFE04F587531C33DD
:1039B000C4F8B8320398C4F8C452434604223146CE
:1039C000CDF80080FFF770FE3846039906F0ECF85A
:1039D00020460BB0BDE8F08FDC6E0208086E0208CE
:1039E0000C75020884780208246E0208C46E02086E
:1039F00007360008006C020870477047704730B403
:103A0000C26844685510034604EB6200D20748BF01
:103A100062599B6830BC48BFD3581847034640687A
:103A200030B19A681AB9D86800F0010070470120D7
:103A3000704710B5102104461FF070FF204610BDDE
:103A400010B5034B036004460BF006FB204610BD87
:103A50002C6F020810B5064B036004460BF0FCFA0D
:103A6000204641F20C111FF059FF204610BD00BF47
:103A70002C6F020800F522728A4208B508D103684B
:103A8000DB6A98470CF0E2FFBDE80840FEF730BE65
:103A900008BD00002DE9F04F04468BB0A04600257C
:103AA0000FF0D6F8A64BE56348F8403B04F16C09EB
:103AB0004046FFF70DFE04F1980A08A94FF6FF767D
:103AC000484604F1E00BADF82060FFF715FE5046C4
:103AD00008F0F0FF5846ADF82060FDF723FD994B44
:103AE000C4F8E830BDF82030A4F8EC3008A904F19F
:103AF000E800C4E93C55C4E93E5584F8EE5084F82A
:103B00000051FFF713FD904BC4F8E0302433C4F8A4
:103B1000E83004F5867318468C4E0593FFF7D8FD00
:103B200004F5A073C4F80C611846C4F83851A4F821
:103B30003C510493FFF7CCFDC4F8406104F5BA761C
:103B4000C4F86C51A4F87051304605F023FE04F51A
:103B5000227318460393FFF765FD4FF47F43A4F8E3
:103B6000B432012384F8AC32794BC4F8883204F5BE
:103B700030774FF0FF33C4F8BC3208A9C4F8B05214
:103B8000C4F8B8523846ADF82030FFF7B5FD0398B9
:103B9000394606F009F86F4A04F58053C3E93F241B
:103BA0006D4A04F53B70C3E941254FF461610BF0A8
:103BB00049FA4FF4A0732A46009329464046F02361
:103BC000FFF772FD271D4FF07F43A366414638463D
:103BD00005F0EAFF2A4629464846FFF7A4FA0823DB
:103BE00008A948464FF01E08ADF820300AF02CFA1C
:103BF0004946384605F0D8FF822243465046CDF864
:103C000000801221FFF750FD4FF4F073C4E9313307
:103C1000C4F8CC304FF43453C4F8D4304FF00A0910
:103C200008A95846C4F8D850C4F8D050ADF8209030
:103C300007F05FFDC4F8C0B0514638464FF4967B9C
:103C400005F0B2FF0598CDF800B064236FF0C00214
:103C5000A021FFF729FD4FF0050A4FF0FF324FF08A
:103C60007F43C4E94D230599A4F83CA1384605F0EB
:103C70009BFF0498CDF800B0CF226423A021FFF76A
:103C800013FD4FF07F434FF0FF31C4E95A1338461C
:103C90000499A4F870A105F087FF294630464FF437
:103CA0008772FFF740FA4A463046CDF800809623E7
:103CB0000C2105F050FD64222B4629463046009524
:103CC00005F0CAFD3046254905F0B9FC4FF0020960
:103CD000234B089308A93046ADF8249005F0DCFC8E
:103CE000072308A93046ADF8203005F0F0FE29463C
:103CF000304605F0DDFC3146384605F055FF092316
:103D00000398ADF81C3008AA07A9ADF82030FFF7DA
:103D10009BFC04F587531C33C4F8B8320398C4F8ED
:103D2000C45243464A46CDF800800321FFF7BCFC4D
:103D30003846039905F038FF20460BB0BDE8F08FF8
:103D40002C6F0208086E02080C75020884780208BD
:103D5000246E0208146F0208753A0008371B0CFF26
:103D6000006C020870477047704730B4C2684468FE
:103D70005510034604EB6200D20748BF62599B68A6
:103D800030BC48BFD35818470346406830B19A68E2
:103D90001AB9D86800F0010070470120704710B5CB
:103DA000102104461FF0BAFD204610BD10B5034B8C
:103DB000036004460BF050F9204610BD7C6F0208EA
:103DC00010B5064B036004460BF046F9204641F25D
:103DD0000C111FF0A3FD204610BD00BF7C6F020830
:103DE00000F522728A4208B508D10368DB6A984759
:103DF0000CF02CFEBDE80840FEF77ABC08BD0000C0
:103E00002DE9F04F04468BB0A04600250EF020FFB0
:103E1000A74BE56348F8403B04F16C094046FFF7C7
:103E200057FC04F1980A08A94FF6FF76484604F1BA
:103E3000E00BADF82060FFF75FFC504608F03AFE5B
:103E40005846ADF82060FDF76DFB9A4BC4F8E8309A
:103E5000BDF82030A4F8EC3008A904F1E800C4E96A
:103E60003C55C4E93E5584F8EE5084F80051FFF704
:103E70005DFB914BC4F8E0302433C4F8E83004F51E
:103E8000867318468D4E0593FFF722FC04F5A07348
:103E9000C4F80C611846C4F83851A4F83C51049396
:103EA000FFF716FCC4F8406104F5BA76C4F86C510B
:103EB000A4F87051304605F06DFC04F522731846E5
:103EC0000393FFF7AFFB4FF47F43A4F8B4324FF0F6
:103ED000010384F8AC327A4BC4F8883204F53077A9
:103EE0004FF0FF33C4F8BC3208A9C4F8B052C4F88C
:103EF000B8523846ADF82030FFF7FEFB039839463C
:103F000005F052FE6F4A04F58053C3E93F246E4A20
:103F100004F53B70C3E941254FF461610BF092F861
:103F20004FF4A0732A46009329464046F023FFF73A
:103F3000BBFB271D4FF07F43A3664146384605F083
:103F400033FE2A4629464846FFF7EDF8082308A91C
:103F500048464FF01E08ADF820300AF075F8494683
:103F6000384605F021FE822243465046CDF80080B7
:103F70001221FFF799FB4FF4F073C4E93133C4F811
:103F8000CC304FF43453C4F8D4304FF00A0908A9A8
:103F90005846C4F8D850C4F8D050ADF8209007F077
:103FA000A8FBC4F8C0B0514638464FF4967B05F0E4
:103FB000FBFD0598CDF800B032236FF0C102A021BF
:103FC000FFF772FB4FF0050A4FF0FF324FF07F43CF
:103FD000C4E94D230599A4F83CA1384605F0E4FD59
:103FE0000498CDF800B0CF223223A021FFF75CFB6C
:103FF0004FF07F434FF0FF31C4E95A13384604991C
:10400000A4F870A105F0D0FD294630464FF4877220
:10401000FFF789F84A463046CDF8008096230C21F8
:1040200005F099FB64222B4629463046009505F0A1
:1040300013FC3046254905F002FB254B089308A9DF
:104040004FF001033046ADF8243005F025FB07237F
:1040500008A93046ADF8203005F039FD2946304634
:1040600005F026FB3146384605F09EFD09230398EE
:10407000ADF81C3008AA07A9ADF82030FFF7E4FA24
:1040800004F587531C33C4F8B8320398C4F8C452FB
:1040900043460222CDF800800321FFF705FB384696
:1040A000039905F081FD20460BB0BDE8F08F00BFFD
:1040B0007C6F0208086E02080C75020884780208FA
:1040C000246E0208646F0208E13D0008371B0CFFF4
:1040D000006C02087047000030B5164D2C6814F0D3
:1040E00001048FB0BFF35B8F20D128461FF018FC6E
:1040F000E0B13F230993104B0893104B104911482E
:104100000A940122CDE906430423CDE903320A23B0
:104110000093CDE90B44CDE901440594FEF780FFFF
:10412000094820F055FB28461FF006FC05480FB053
:1041300030BD00BF68280020548D0208888D020819
:10414000AC8B02086C280020D540000870470000A6
:1041500030B5174D2C6814F001048FB0BFF35B8F9E
:1041600022D128461FF0DCFBF0B13F230993114B0D
:104170000893114B07930123CDE9054304930423CE
:10418000CDE9024314230D4900931C221823CDE9E5
:104190000B440B480A940194FEF742FF094820F0B3
:1041A00017FB28461FF0C8FB05480FB030BD00BF05
:1041B00098280020588D02088C8D0208BC8B0208BC
:1041C0009C2800204D4100087047000030B5164D76
:1041D0002C6814F001048FB0BFF35B8F20D1284608
:1041E0001FF09EFBE0B13F230993104B0893104B47
:1041F000104911480A940122CDE906430423CDE970
:10420000033228230093CDE90B44CDE90144059402
:10421000FEF706FF094820F0DBFA28461FF08CFB6A
:1042200005480FB030BD00BFC8280020848D0208AB
:10423000908D0208448D0208CC280020C941000856
:1042400000207047002070470EB403B503AB002177
:1042500053F8042B01930DF0F3FC02B05DF804EB6E
:1042600003B070470CB407B504AB53F8042B0193AB
:104270000DF0E6FC03B05DF804EB02B070470000FF
:10428000436C10B5044673B3038F2BB9184B194A0E
:10429000C521194820F07EFAC38E00EB43035B8CE6
:1042A0000BB30FF03AFC238F012B03D8134B144AA6
:1042B000CB21EEE7E28E531C9BB2092B194688BF37
:1042C000A3F10A0104EB410140F63F10498C814201
:1042D00009D10A2B04EB420228BF002304EB43035D
:1042E000508C588451842046BDE810400FF018BB14
:1042F000536502085C6502080766020851660208F9
:104300005F6602080FF0D3BA10B586B002AC84E83D
:1043100006001A460AAB05930193099B00932146B8
:10432000089B0BF031FF06B010BD000038B518BB7C
:10433000124B13481C681349B4B12268224402602E
:10434000626822440A60A26814440F4B00221A805B
:1043500000F038F8054600F033F80C4B1C600C4BAD
:104360001D600C4B188007E00B4B03600B4B0B6080
:104370000B4B1C68002CE8D138BD00BF042900207D
:10438000FC280020F828002000290020E036012029
:10439000E8360120E4360120B48D0208948D02082D
:1043A000008E0208044B1B6853F82100034B1B6866
:1043B00003EB4000704700BFF8280020FC280020D5
:1043C00008207047004870470829002010B5FFF703
:1043D000BFFE044C2060FFF7F9FE6060FFF77CFE33
:1043E000A06010BD0829002010B5002404600C60F6
:1043F00014601C6010BD704710B54FF4AE710446D8
:104400001FF08CFA204610BD10B50446D0F85801B4
:1044100000F016F82046BDE810400CF0DBBB0000B1
:1044200010B50446FEF710F9014B2360204610BD7D
:10443000B46F020800225F210260818082607047B1
:10444000036801330360704781807047B0F904004E
:104450007047704704387047704710B51021044604
:104460001FF05CFA204610BDA0F10400F5E7000043
:1044700000228260024A026018324260C1607047C6
:10448000087002080368DB681847D0F8DC32013393
:10449000C0F8DC327047000010B5034B03600446DF
:1044A000FEF7F5FD204610BD3070020810B5044639
:1044B000FFF7F2FF20464FF438711FF02FFA204625
:1044C00010BD000010B50446FEF78EFE034B2360BE
:1044D0000023C4F8DC32204610BD00BF3070020853
:1044E00010B50446FEF7D4FD054B983420461968F4
:1044F00005F0DEF82046BDE810400DF0CBBC00BF53
:1045000034260020704704387047704710B51021DA
:1045100004461FF003FA204610BDA0F10400F5E7A1
:1045200000228260024A026018324260C160704715
:10453000687002088068FFF787BF8068FFF786BF52
:1045400000F5805310B50446B3F90C11C06BFFF7AA
:10455000F1FF23682046DB68BDE8104018470000E3
:1045600010B5034B03600446FEF7FEFF204610BD66
:104570009070020810B50446FFF7F2FF204641F2A2
:1045800014111FF0CBF9204610BD000010B50446F1
:10459000FFF7CCF8044B236004F580530022C3F8E6
:1045A0001021204610BD00BF9070020838B5214B85
:1045B000214D1A8821490A2A08BF2B68098804BF9F
:1045C00001332B601E4BD3ED006A1E4B1B88044643
:1045D000581807EE900AB3EE0E7A36EE877AF8EEA8
:1045E000E77AB4EEE77AF1EE10FA09DA5B1A07EE31
:1045F000903AF8EEE77AF4EEE76AF1EE10FA0CD8AA
:10460000114B1B8802F132018B4206DC1E339A42A9
:1046100003DC0CF01BFAFEF75BF80C4B29681A68F8
:104620008A4238BF196004F5BA70BDE8384005F019
:104630003FB800BF1E29002038260020240000209B
:10464000200000201C290020140000203426002017
:1046500010B50446C06BFFF770FF04F58053A3F854
:104660000C012046FEF723FF0E4B1B88A4F89C305C
:104670000D4B40F209121A800C4BA0221A8004F54F
:10468000BA740B4B00212046196005F011F8204642
:104690000DF000FC074B186803F01CF8064B0122D4
:1046A0001A6010BD140000201E2900201C290020C3
:1046B000382600203C26002028000020F7B50446BC
:1046C00004F5805700F5BA700DF0E4FBD7F810310F
:1046D000414D424E01334FF49672C7F81031B3FB8F
:1046E000F2F102FB113353B902F062FE3388C3F1D9
:1046F0008C035B00B0FBF3F202FB13002870384B15
:10470000384A1B680A2B84BF022313601268D7F84B
:10471000103153434FF49672B3FBF2F102FB1133A5
:10472000C3F58773304A31889BB213802A782F4DA6
:1047300001F11400024492B21BB22D48A4F8443196
:10474000A4F810318B18A4F84631B4F81631028061
:10475000521A2848D21A0023A4F8122100681A46D7
:10476000694602F087FF38B923496846FBF740FDE8
:1047700010B9224B1B682B60214BD5ED007A93EDCD
:10478000007A204B77EE877A93ED007AC5ED007AB8
:1047900077EE877AF5EEC07AF1EE10FA18D49FED35
:1047A0001A7AF4EE477AF1EE10FAC8BFF0EE477AC3
:1047B000C3ED007AFDEEE77A204617EE903AA4F8B2
:1047C0009E30FFF7F3FE201D0DF064FB03B0F0BD3B
:1047D000DFED0E7AECE700BF142900202400002052
:1047E00038260020280000201E290020182900203B
:1047F0001C2900203C2600203167020818000020F8
:104800001C00002020000020000091430000000058
:10481000704704387047704710B5102104461FF0E8
:104820007DF8204610BDA0F10400F5E7002282606B
:10483000024A026018324260C1607047C8700208C4
:104840007047000010B5034B03600446FFF7F8F80B
:10485000204610BDF070020810B50446FFF7F2FFC5
:10486000204641F20C111FF059F8204610BD0000FF
:1048700010B50446FFF70EF9014B2360204610BD2A
:10488000F0700208FFF7BAB87047043870477047F5
:1048900010B5102104461FF041F8204610BDA0F1CC
:1048A0000400F5E700228260024A0260183242608A
:1048B000C1607047287102087047000010B5034BB3
:1048C00003600446FFF772FA204610BD50710208DB
:1048D00010B50446FFF7F2FF204641F20C111FF01D
:1048E0001DF8204610BD000010B50446FFF788FAF9
:1048F000014B2360204610BD50710208FFF734BA07
:10490000F02070474FF4A07070472920FDF7CEB912
:104910002820FDF7CBB908B5FDF79CF9CA20FDF7B3
:10492000C5F9C320FDF7A6F90820FDF7A3F950202B
:10493000FDF7A0F9CF20FDF7B9F90020FDF79AF9AE
:10494000C120FDF797F93020FDF794F9ED20FDF730
:10495000ADF96420FDF78EF90320FDF78BF91220E5
:10496000FDF788F98120FDF785F9E820FDF79EF92C
:104970008520FDF77FF90020FDF77CF97820FDF711
:1049800079F9CB20FDF792F93920FDF773F92C2046
:10499000FDF770F90020FDF76DF93420FDF76AF995
:1049A0000220FDF767F9F720FDF780F92020FDF7D9
:1049B00061F9EA20FDF77AF90020FDF75BF90020A4
:1049C000FDF758F9B120FDF771F90020FDF752F914
:1049D0001B20FDF74FF9B620FDF768F90A20FDF717
:1049E00049F9A220FDF746F9C020FDF75FF9102034
:1049F000FDF740F9C120FDF759F91020FDF73AF90C
:104A0000C520FDF753F94520FDF734F91520FDF7D2
:104A100031F9C720FDF74AF99020FDF72BF9362030
:104A2000FDF744F9C820FDF725F9F220FDF73EF91E
:104A30000020FDF71FF9B020FDF738F9C220FDF77F
:104A400019F9B620FDF732F90A20FDF713F9A7206E
:104A5000FDF710F92720FDF70DF90420FDF70AF9FD
:104A60002A20FDF723F90020FDF704F90020FDF7C7
:104A700001F90020FDF7FEF8EF20FDF7FBF82B20F1
:104A8000FDF714F90020FDF7F5F80020FDF7F2F826
:104A90000120FDF7EFF83F20FDF7ECF8F620FDF7D9
:104AA00005F90120FDF7E6F80020FDF7E3F8062000
:104AB000FDF7E0F82C20FDF7F9F8C820FDF744F9E0
:104AC0002620FDF7F3F80120FDF7D4F8E020FDF7EC
:104AD000EDF80F20FDF7CEF82920FDF7CBF82420C4
:104AE000FDF7C8F80C20FDF7C5F80E20FDF7C2F859
:104AF0000920FDF7BFF84E20FDF7BCF87820FDF740
:104B0000B9F83C20FDF7B6F80920FDF7B3F81320FB
:104B1000FDF7B0F80520FDF7ADF81720FDF7AAF86E
:104B20001120FDF7A7F80020FDF7A4F8E120FDF71C
:104B3000BDF80020FDF79EF81620FDF79BF81B201E
:104B4000FDF798F80420FDF795F81120FDF792F88D
:104B50000720FDF78FF83120FDF78CF83320FDF7A3
:104B600089F84220FDF786F80520FDF783F80C2030
:104B7000FDF780F80A20FDF77DF82820FDF77AF888
:104B80002F20FDF777F80F20FDF774F81120FDF7BF
:104B90008DF8C820FDF7D8F82920FDF787F8BDE883
:104BA00008402C20FDF782B808B5FDF753F8032123
:104BB000D320FDF797F880B208BD10B5C4B2022229
:104BC00003212046FCF7FCFF0A20FDF741F82046B0
:104BD00000220321FCF7F4FFBDE810400220FDF79E
:104BE00037B838B50446E4B2FCF7E8FF00212046A8
:104BF000FCF7FEFF012105462046FCF7F9FF40EADD
:104C0000052080B238BD10B5C4B240212046FCF763
:104C1000EFFF030607D54C212046FCF7E9FF0038DB
:104C200018BF012010BD01224B212046FCF7C8FF10
:104C3000204600224B21FCF7C3FF0020F2E773B5AA
:104C40000423C4B20E461546D7210DEB03022046BD
:104C5000FCF7E8FF019B1BBA1A0DC3F30B2332804C
:104C600020462B8001224B21FCF7AAFF00224B217A
:104C70002046FCF7A5FF02B070BD000010B50A4A3F
:104C80001378984204460DD0517888420AD00BB16F
:104C900041B90123D454FCF791FF2046BDE81040F0
:104CA000FFF78BBF10BD00BF2029002010B5C4B294
:104CB00009212046FCF79CFF40F00102D2B22046B9
:104CC0000921BDE81040FCF77BBF10B5C4B2092133
:104CD0002046FCF78DFF092100F0FE022046BDE8CA
:104CE0001040FCF76DBF38B5C4B20D4620460A210E
:104CF000FCF77EFF40EA0502D2B220460A21BDE859
:104D00003840FCF75DBF10B50446FCF758FF20465D
:104D10001F21FFF7E8FF2046BDE81040FFF7C6BFA0
:104D200038B5C4B20D4620460A21FCF761FF20EADF
:104D30000502D2B220460A21BDE83840FCF740BF48
:104D400010B50446FFF7C1FF20461F21BDE8104003
:104D5000FFF7E6BF10B5C0B20C460B21FCF748FFC9
:104D6000204010BD1F21FFF7F5BF0A46C0B20B213E
:104D7000FCF726BF1F21FFF7F8BF38B5C4B20D46B8
:104D800020461721FCF734FF20EA0502D2B2204664
:104D90001721BDE83840FCF713BF70B5C4B2064612
:104DA00004212046FCF724FF042100F0FB02054605
:104DB0002046FCF705FF3046F021FFF7DEFF05F047
:104DC000F80220460421FCF7FBFE49222021204660
:104DD000FCF7F6FE0220FCF73BFF204601222121D2
:104DE000FCF7EEFE20469A224121FCF7E9FE204620
:104DF00001224A21FCF7E4FE204601224B21FCF768
:104E0000DFFE204600224B21FCF7DAFE204601227D
:104E10005621FCF7D5FE204601225821FCF7D0FE92
:104E2000204601224021FCF7CBFE2046FF220B2129
:104E3000FCF7C6FEBDE870400220FCF709BF000089
:104E4000054BD3F8882042F47002C3F888204FF055
:104E500000629A60704700BF00ED00E008B50B4BA0
:104E60001A6842F400721A601A6842F480621A608A
:104E70001A6842F480721A60032000F02FF80020B4
:104E8000FDF7A4F9FCF76EFF002008BD003C0240CE
:104E9000034A044B11681B780B441360704700BF32
:104EA0002429002090000020014B1868704700BFA3
:104EB0002429002038B50446FFF7F6FF631C1CBF09
:104EC000054B1B78054618BFE418FFF7EDFF431BA1
:104ED000A342FAD338BD00BF900000200749CA683A
:104EE00022F4E0620302120403F4E063120C1343A1
:104EF00043F0BF6343F40033CB60704700ED00E044
:104F0000164B30B5DC68C4F30224C4F10703251D39
:104F1000042B28BF0423062D4FF0FF358CBF033C24
:104F2000002405FA03F321EA0303A54022EA05025F
:104F3000A340002843EA0203ACBF00F16040084AE6
:104F40004FEA0313B8BF00F00F00DBB2AABF00F5B1
:104F50006140135480F8003330BD00BF00ED00E025
:104F600014ED00E0002807DB044A4109012300F0AA
:104F70001F00834042F82130704700BF00E100E08D
:104F800010B5044650B1437903F0FF0213B9027122
:104F9000FCF708FF01236371002010BD0120FCE72E
:104FA00010B5044620B390F8393003F0FF021BB966
:104FB00080F83820FCF70EFF022384F8393023688C
:104FC00061681A6822F440320A431A605A6BA16879
:104FD00022F007020A435A631A6CE1686FF30D026C
:104FE0000A431A6400200123E06384F8393010BDBD
:104FF0000120FCE770477047036870B55E681D6864
:10500000F207044614D5E90512D51A6822F4807215
:105010001A60C26B42F00102C26301229A6004234B
:1050200080F83930002380F83830436903B198475D
:10503000B20616D5AB0414D523681A6822F40052C0
:105040001A6020229A60E36B43F00203E3630423B7
:1050500084F83930002384F8383063690BB1204676
:105060009847300716D5290514D523681A6822F405
:1050700000621A6008229A60E36B43F00403E36362
:10508000042384F83930002384F8383063690BB185
:105090002046984772070BD56B0509D523681A6817
:1050A00022F480621A6004229A602046FFF7A2FF71
:1050B000B00714D5A90512D523681A6822F4007226
:1050C0001A6002229A60E36BE363012384F83930AB
:1050D000002384F8383023690BB120469847F20644
:1050E00013D5EB0411D523681A6822F480521A6094
:1050F00010229A60E36BE363012384F839300023C4
:1051000084F838302046FFF776FF70BDF0B590F890
:105110003820012A03464FF002002BD0012283F8E9
:10512000382083F8390003EB0112D2E90740556AB1
:10513000174F44EA0040093C012C9CBF05F07F4218
:1051400010434FEA01161A6888BF40EA056091B91A
:10515000516A394001435162012C9969916103D828
:10516000596A21F07F4191620122002083F83920A1
:1051700083F83800F0BDD16939400143D1619919F4
:10518000012C896911619CBF25F07F451562EBE711
:10519000F0FFFC002DE9F74FDFF8BC916C4A0023CB
:1051A0000D6801249C4004EA0506AC4340F0B7803A
:1051B0004D68032705F003044FEA430807FA08FC8B
:1051C000671E012F6FEA0C0C34D8876807EA0C0EB3
:1051D000CF6807FA08F747EA0E078760476827EAAB
:1051E000060EC5F300179F4047EA0E074760C768E1
:1051F00007EA0C0E8F6807FA08F747EA0E07022C39
:10520000C76019D14FEAD30A00EB8A0A03F0070BF3
:10521000DAF820704FEA8B0B4FF00F0E0EFA0BFEF0
:1052200027EA0E0E0F6907FA0BF747EA0E07CAF8CE
:10523000207001E0032CDAD1076804FA08F407EAC9
:105240000C073C4315F4403F046068D000240194EF
:10525000D9F8444044F48044C9F84440D9F8444063
:1052600023F0030707F1804704F4804407F59C37D7
:10527000019403F0030C019CD7F808E04FEA8C0C72
:105280000F2404FA0CF42EEA040E324CA0424DD046
:1052900004F58064A0424BD004F58064A04249D05C
:1052A00004F58064A04247D004F58064A04245D054
:1052B00004F58064A04243D004F58064A04241D04C
:1052C00004F58064A0423FD004F58064A0423DD044
:1052D00004F58064A04214BF0A24092404FA0CF4E3
:1052E00044EA0E04BC609468F74315F4801F0CBFB9
:1052F0003C4034439460D46815F4001F0CBF3C401C
:105300003443D460546815F4003F0CBF3C40344330
:1053100054601468ED0354BF3C40344314600133BF
:10532000102B7FF43DAF03B0BDE8F08F0024D5E72C
:105330000124D3E70224D1E70324CFE70424CDE7F7
:105340000524CBE70624C9E70724C7E70824C5E7F7
:10535000003C01400000024000380240036919424D
:1053600014BF0120002070470AB181617047090411
:10537000FBE7436901EA030221EA030141EA024132
:105380008161704701684B6913F480634FF000023C
:1053900010D06FF480634B612023026380F83D30AE
:1053A00080F83E20036C80F83C2043F00403036443
:1053B00001207047184670472DE9F84606460F460B
:1053C00091461D464FEA114A3368BAF1010F0CBFEE
:1053D0005C699C6927EA0404A4B2B4FA84F4640901
:1053E000A14501D0002025E06A1CEED0FFF75CFD4E
:1053F000089BC01AA84201D8002DE5D13368BAF144
:10540000010F0CBF5B699B6927EA03039BB2B3FAE8
:1054100083F35B099945D7D100232022336386F8B3
:105420003D2086F83E30326C86F83C3042F0200257
:1054300032640120BDE8F8862DE9F04104460F46AC
:10544000164698462568686927EA000080B2C0B110
:105450006B695A0517D52B6843F400732B606FF402
:1054600080636B6120220023236384F83D2084F84D
:105470003E30236C43F004032364002384F83C3063
:105480000120BDE8F081731CDDD0FFF70DFDA0EB1E
:105490000800B04201D8002ED4D123685A6927EA07
:1054A000020292B2002ACDD000232022236384F886
:1054B0003D2084F83E30236C1343DDE770B504468D
:1054C0000D46164623685B691B0601D500201EE0C9
:1054D0002046FFF757FFC8B96A1CF3D0FFF7E4FC7A
:1054E000801BA84201D8002DECD123685B6913F022
:1054F0008003E7D12022236384F83D2084F83E30E6
:10550000226C84F83C3042F020022264012070BDFD
:105510002DE9F0431546026885B0DDE90C7899461F
:10552000136843F4807313600E463B46CDF8008049
:1055300000224FF001110446FFF73EFF236838B107
:105540001B68DB0502D54FF400732364032620E0BB
:1055500006F0FE061E611A4943463A462046FFF70A
:105560006BFFA8B9236803905A6903929B69039360
:10557000424639462046039BFFF7A0FF064660B12E
:10558000236C042B01BF2268136843F4007313607B
:105590000126304605B0BDE8F083B9F1010F23685C
:1055A00002D1EDB21D61F4E72A0A1A61394642467A
:1055B0002046FFF783FF0028E2D12368F1E700BF10
:1055C000020001002DE9FF479A46036815461A6854
:1055D00042F480621A601A68DDE90C7842F4807245
:1055E0001A600E463B46CDF8008000224FF00111B4
:1055F0000446FFF7E1FE236838B11B68DB0544BFB2
:105600004FF400732364032021E05FFA86F906F06B
:10561000FE061E612B4943463A462046FFF70CFF23
:10562000A0B9236803905A6903929B690393424689
:1056300039462046039BFFF741FF58B1236C042BEA
:1056400001BF2268136843F400731360012004B0A3
:10565000BDE8F087BAF1010F23681AD1EDB24246D6
:105660001D6139462046FFF729FF02460028E5D193
:1056700021680B6843F480730B602046CDF80080EE
:105680003B464FF00111FFF797FE226860B11368A7
:10569000B4E72A0A1A61394642462046FFF70EFF50
:1056A0000028CBD12368D9E749F0010313610549EC
:1056B00043463A462046FFF7BFFE003818BF012098
:1056C000C5E700BF0200010070B504460D4616464E
:1056D00023685B695B0701D500201EE02046FFF7C9
:1056E00051FEC8B96A1CF3D0FFF7DEFB801BA8424D
:1056F00001D8002DECD123685B6913F00403E7D1D6
:105700002022236384F83D2084F83E30226C84F804
:105710003C3042F020022264012070BD70B5044686
:105720000D46164621684B6913F0400301D0002056
:1057300011E04A69D2060FD56FF010024A612022AB
:10574000236384F83D2084F83E30236C23640023D7
:1057500084F83C30012070BDFFF7A6FB801BA842F7
:1057600001D8002DDED123685B6913F04003D9D145
:105770002022236384F83D2084F83E30236C1343B9
:10578000E4E7000070B5044608B9012070BD90F848
:105790003D3003F0FF021BB980F83C20FCF73CFBD6
:1057A000242384F83D3023681A6822F001021A602D
:1057B0001A6842F400421A601A6822F400421A6021
:1057C00000F0A8FE3F4B65689D4294BF3E4B3F4BA7
:1057D00098428CBF00230123002BD6D12268394E7A
:1057E00051683B4BB0FBF3F321F03F011943B54245
:1057F000516088BF4FF49676116A88BF734321F0D9
:105800003F0184BF4FF47A76B3FBF6F301330B43C9
:105810001362D169431E2B4821F44F41854221F088
:10582000FF0132D86D0040F6FC70B3FBF5F3013395
:10583000034242D0C3F30B031943D161D4E90730CB
:105840001168034321F0C0010B4313609168D4E950
:10585000030321F40341034321F0FF010B43936051
:10586000D4E90530D168034321F0FF010B43D36035
:10587000136843F00103136000202023206484F8A0
:105880003D30206384F83E0080E7A06850B905EB06
:105890004505B3FBF5F30133C3F30B037BB143F4CD
:1058A0000043C9E719206843B3FBF0F30133C3F3A6
:1058B0000B0323B143F44043BEE70423BCE70123B9
:1058C000BAE700BFA08601007F841E00FF083D00EC
:1058D00040420F002DE9F743044699460C9E0F46BF
:1058E0009046FFF7E1FA94F83D30202B054603D0AF
:1058F000022003B0BDE8F08300903C491923012247
:105900002046FFF759FD0028F2D194F83C30012BD6
:10591000EED02068012384F83C300368D9075EBFCD
:10592000036843F001030360036823F4006303602A
:10593000212384F83D30402384F83E300023236443
:105940000A9B6362BDF82C306385638D2385284BE9
:10595000E3624246CDE900654B4639462046FFF7F3
:10596000D7FD00282AD00120C3E7FFF7A7FD40B1EB
:10597000236C042B01BF2268136843F40073136087
:10598000F1E7636A27681A4612F8011B39616262FF
:10599000628D218D013A92B262857A69481E80B289
:1059A000520720850AD548B15A783A6102336362BA
:1059B000638D013B02399BB221856385238D2A4685
:1059C00031462046002BD0D1FFF77EFE0028CFD1F4
:1059D0002268136843F400731360202384F83D3079
:1059E00084F83C0084F83E0083E700BF020010000A
:1059F0000000FFFF2DE9F043044687B09946109F51
:105A00000D469046FFF750FA94F83D30202B06469D
:105A100004D00225284607B0BDE8F08300907A49FB
:105A2000192301222046FFF7C7FC0028F1D194F882
:105A30003C30012BEDD02068012384F83C30036812
:105A4000DB075EBF036843F001030360036823F4D0
:105A500000630360222384F83D30402384F83E3005
:105A6000002323640E9B6362BDF83C306385638D25
:105A70002385664BE3622946CDE900764B464246D4
:105A80002046FFF79FFD054608B10125C2E7228D9C
:105A90002368B2B902905A6902929A690292029AF4
:105AA0001A6842F400721A60DFF86481238D002BBB
:105AB0002CD1202284F83D2084F83C3084F83E30FC
:105AC000A8E7012A0AD11A6822F480621A600390BA
:105AD0005A6903929A690392039AE1E7022A0ED166
